{
  "_format": "hh-sol-artifact-1",
  "contractName": "Contract",
  "sourceName": "contracts/Contract.sol",
  "abi": [
    {
      "inputs": [
        {
          "internalType": "address",
          "name": "_nftaddress",
          "type": "address"
        },
        {
          "internalType": "address payable",
          "name": "_seller",
          "type": "address"
        }
      ],
      "stateMutability": "nonpayable",
      "type": "constructor"
    },
    {
      "inputs": [
        {
          "internalType": "uint256",
          "name": "_nftID",
          "type": "uint256"
        }
      ],
      "name": "bought",
      "outputs": [],
      "stateMutability": "payable",
      "type": "function"
    },
    {
      "inputs": [
        {
          "internalType": "uint256",
          "name": "",
          "type": "uint256"
        }
      ],
      "name": "buyer",
      "outputs": [
        {
          "internalType": "address",
          "name": "",
          "type": "address"
        }
      ],
      "stateMutability": "view",
      "type": "function"
    },
    {
      "inputs": [
        {
          "internalType": "uint256",
          "name": "_nftID",
          "type": "uint256"
        }
      ],
      "name": "cancelSale",
      "outputs": [],
      "stateMutability": "nonpayable",
      "type": "function"
    },
    {
      "inputs": [
        {
          "internalType": "uint256",
          "name": "_nftID",
          "type": "uint256"
        },
        {
          "internalType": "address",
          "name": "_buyer",
          "type": "address"
        }
      ],
      "name": "declareBuyer",
      "outputs": [],
      "stateMutability": "nonpayable",
      "type": "function"
    },
    {
      "inputs": [],
      "name": "getBalance",
      "outputs": [
        {
          "internalType": "uint256",
          "name": "",
          "type": "uint256"
        }
      ],
      "stateMutability": "view",
      "type": "function"
    },
    {
      "inputs": [],
      "name": "index",
      "outputs": [
        {
          "internalType": "uint256",
          "name": "",
          "type": "uint256"
        }
      ],
      "stateMutability": "view",
      "type": "function"
    },
    {
      "inputs": [
        {
          "internalType": "uint256",
          "name": "",
          "type": "uint256"
        }
      ],
      "name": "isListed",
      "outputs": [
        {
          "internalType": "bool",
          "name": "",
          "type": "bool"
        }
      ],
      "stateMutability": "view",
      "type": "function"
    },
    {
      "inputs": [
        {
          "internalType": "uint256",
          "name": "_nftID",
          "type": "uint256"
        },
        {
          "internalType": "string",
          "name": "_amenities",
          "type": "string"
        },
        {
          "internalType": "uint256",
          "name": "_sqfoot",
          "type": "uint256"
        },
        {
          "internalType": "uint256",
          "name": "_bedno",
          "type": "uint256"
        },
        {
          "internalType": "string[]",
          "name": "_img",
          "type": "string[]"
        },
        {
          "internalType": "string",
          "name": "_descp",
          "type": "string"
        },
        {
          "internalType": "uint256",
          "name": "_purchasePrice",
          "type": "uint256"
        }
      ],
      "name": "list1",
      "outputs": [],
      "stateMutability": "nonpayable",
      "type": "function"
    },
    {
      "inputs": [
        {
          "internalType": "uint256",
          "name": "_nftID",
          "type": "uint256"
        },
        {
          "internalType": "string",
          "name": "_city",
          "type": "string"
        },
        {
          "internalType": "string",
          "name": "_country",
          "type": "string"
        },
        {
          "internalType": "string",
          "name": "_addline",
          "type": "string"
        }
      ],
      "name": "list2",
      "outputs": [],
      "stateMutability": "nonpayable",
      "type": "function"
    },
    {
      "inputs": [
        {
          "internalType": "uint256",
          "name": "_nftID",
          "type": "uint256"
        },
        {
          "internalType": "string",
          "name": "_name",
          "type": "string"
        },
        {
          "internalType": "string",
          "name": "_email",
          "type": "string"
        },
        {
          "internalType": "string",
          "name": "_proptype",
          "type": "string"
        }
      ],
      "name": "list3",
      "outputs": [],
      "stateMutability": "nonpayable",
      "type": "function"
    },
    {
      "inputs": [
        {
          "internalType": "uint256",
          "name": "_nftID",
          "type": "uint256"
        }
      ],
      "name": "listed",
      "outputs": [
        {
          "internalType": "bool",
          "name": "",
          "type": "bool"
        }
      ],
      "stateMutability": "view",
      "type": "function"
    },
    {
      "inputs": [
        {
          "internalType": "uint256",
          "name": "_nftID",
          "type": "uint256"
        }
      ],
      "name": "meta1",
      "outputs": [
        {
          "internalType": "string",
          "name": "",
          "type": "string"
        },
        {
          "internalType": "uint256",
          "name": "",
          "type": "uint256"
        },
        {
          "internalType": "uint256",
          "name": "",
          "type": "uint256"
        },
        {
          "internalType": "string[]",
          "name": "",
          "type": "string[]"
        },
        {
          "internalType": "string",
          "name": "",
          "type": "string"
        }
      ],
      "stateMutability": "view",
      "type": "function"
    },
    {
      "inputs": [
        {
          "internalType": "uint256",
          "name": "_nftID",
          "type": "uint256"
        }
      ],
      "name": "meta2",
      "outputs": [
        {
          "internalType": "string",
          "name": "",
          "type": "string"
        },
        {
          "internalType": "string",
          "name": "",
          "type": "string"
        },
        {
          "internalType": "string",
          "name": "",
          "type": "string"
        }
      ],
      "stateMutability": "view",
      "type": "function"
    },
    {
      "inputs": [
        {
          "internalType": "uint256",
          "name": "_nftID",
          "type": "uint256"
        }
      ],
      "name": "meta3",
      "outputs": [
        {
          "internalType": "string",
          "name": "",
          "type": "string"
        },
        {
          "internalType": "string",
          "name": "",
          "type": "string"
        },
        {
          "internalType": "string",
          "name": "",
          "type": "string"
        }
      ],
      "stateMutability": "view",
      "type": "function"
    },
    {
      "inputs": [
        {
          "internalType": "uint256",
          "name": "",
          "type": "uint256"
        }
      ],
      "name": "metadata",
      "outputs": [
        {
          "internalType": "string",
          "name": "name",
          "type": "string"
        },
        {
          "internalType": "string",
          "name": "email",
          "type": "string"
        },
        {
          "internalType": "string",
          "name": "phoneno",
          "type": "string"
        },
        {
          "components": [
            {
              "internalType": "string",
              "name": "city",
              "type": "string"
            },
            {
              "internalType": "string",
              "name": "country",
              "type": "string"
            },
            {
              "internalType": "string",
              "name": "addline",
              "type": "string"
            }
          ],
          "internalType": "struct Contract.adds",
          "name": "adds",
          "type": "tuple"
        },
        {
          "internalType": "string",
          "name": "proptype",
          "type": "string"
        },
        {
          "internalType": "string",
          "name": "amenities",
          "type": "string"
        },
        {
          "internalType": "uint256",
          "name": "sqfoot",
          "type": "uint256"
        },
        {
          "internalType": "uint256",
          "name": "bedno",
          "type": "uint256"
        },
        {
          "internalType": "string",
          "name": "descp",
          "type": "string"
        }
      ],
      "stateMutability": "view",
      "type": "function"
    },
    {
      "inputs": [],
      "name": "nftaddress",
      "outputs": [
        {
          "internalType": "address",
          "name": "",
          "type": "address"
        }
      ],
      "stateMutability": "view",
      "type": "function"
    },
    {
      "inputs": [
        {
          "internalType": "uint256",
          "name": "_nftID",
          "type": "uint256"
        }
      ],
      "name": "pr",
      "outputs": [
        {
          "internalType": "uint256",
          "name": "",
          "type": "uint256"
        }
      ],
      "stateMutability": "view",
      "type": "function"
    },
    {
      "inputs": [
        {
          "internalType": "uint256",
          "name": "",
          "type": "uint256"
        }
      ],
      "name": "purchasePrice",
      "outputs": [
        {
          "internalType": "uint256",
          "name": "",
          "type": "uint256"
        }
      ],
      "stateMutability": "view",
      "type": "function"
    },
    {
      "inputs": [
        {
          "internalType": "uint256",
          "name": "_nftID",
          "type": "uint256"
        }
      ],
      "name": "retprice",
      "outputs": [
        {
          "internalType": "uint256",
          "name": "",
          "type": "uint256"
        }
      ],
      "stateMutability": "view",
      "type": "function"
    },
    {
      "inputs": [],
      "name": "seller",
      "outputs": [
        {
          "internalType": "address payable",
          "name": "",
          "type": "address"
        }
      ],
      "stateMutability": "view",
      "type": "function"
    },
    {
      "inputs": [],
      "name": "store",
      "outputs": [
        {
          "internalType": "uint256",
          "name": "",
          "type": "uint256"
        }
      ],
      "stateMutability": "view",
      "type": "function"
    },
    {
      "stateMutability": "payable",
      "type": "receive"
    }
  ],
  "bytecode": "0x608060405260006005553480156200001657600080fd5b50604051620026ae380380620026ae83398181016040528101906200003c919062000174565b816000806101000a81548173ffffffffffffffffffffffffffffffffffffffff021916908373ffffffffffffffffffffffffffffffffffffffff16021790555080600160006101000a81548173ffffffffffffffffffffffffffffffffffffffff021916908373ffffffffffffffffffffffffffffffffffffffff1602179055505050620001bb565b600080fd5b600073ffffffffffffffffffffffffffffffffffffffff82169050919050565b6000620000f782620000ca565b9050919050565b6200010981620000ea565b81146200011557600080fd5b50565b6000815190506200012981620000fe565b92915050565b60006200013c82620000ca565b9050919050565b6200014e816200012f565b81146200015a57600080fd5b50565b6000815190506200016e8162000143565b92915050565b600080604083850312156200018e576200018d620000c5565b5b60006200019e8582860162000118565b9250506020620001b1858286016200015d565b9150509250929050565b6124e380620001cb6000396000f3fe60806040526004361061012e5760003560e01c806355f26f9f116100ab578063c5be388a1161006f578063c5be388a1461042b578063e3684e3914610454578063e82dcf2114610499578063e85d826d146104d6578063fbbbd65b14610513578063fcce48831461052f57610135565b806355f26f9f1461033257806377fbc4ae1461035b578063975057e714610398578063bd94b005146103c3578063c17dca22146103ec57610135565b80632827e5bb116100f25780632827e5bb1461021f578063297016b11461024a5780632986c0e51461028b57806344c59256146102b65780634dd4acaf146102f557610135565b8063039146e81461013a57806304c312511461016357806308551a53146101a057806312065fe0146101cb5780631e70c486146101f657610135565b3661013557005b600080fd5b34801561014657600080fd5b50610161600480360381019061015c9190611937565b61056c565b005b34801561016f57600080fd5b5061018a600480360381019061018591906119f2565b6105e7565b6040516101979190611a3a565b60405180910390f35b3480156101ac57600080fd5b506101b5610611565b6040516101c29190611a96565b60405180910390f35b3480156101d757600080fd5b506101e0610637565b6040516101ed9190611ac0565b60405180910390f35b34801561020257600080fd5b5061021d60048036038101906102189190611bc1565b61063f565b005b34801561022b57600080fd5b5061023461074f565b6040516102419190611cd8565b60405180910390f35b34801561025657600080fd5b50610271600480360381019061026c91906119f2565b610773565b604051610282959493929190611e7e565b60405180910390f35b34801561029757600080fd5b506102a06109e9565b6040516102ad9190611ac0565b60405180910390f35b3480156102c257600080fd5b506102dd60048036038101906102d891906119f2565b6109ef565b6040516102ec93929190611ee6565b60405180910390f35b34801561030157600080fd5b5061031c600480360381019061031791906119f2565b610bf0565b6040516103299190611cd8565b60405180910390f35b34801561033e57600080fd5b5061035960048036038101906103549190611937565b610c23565b005b34801561036757600080fd5b50610382600480360381019061037d91906119f2565b610c95565b60405161038f9190611ac0565b60405180910390f35b3480156103a457600080fd5b506103ad610cad565b6040516103ba9190611ac0565b60405180910390f35b3480156103cf57600080fd5b506103ea60048036038101906103e591906119f2565b610cb7565b005b3480156103f857600080fd5b50610413600480360381019061040e91906119f2565b610d67565b60405161042293929190611ee6565b60405180910390f35b34801561043757600080fd5b50610452600480360381019061044d9190611f5e565b610f5f565b005b34801561046057600080fd5b5061047b600480360381019061047691906119f2565b610fb5565b60405161049099989796959493929190611ffc565b60405180910390f35b3480156104a557600080fd5b506104c060048036038101906104bb91906119f2565b6114f3565b6040516104cd9190611ac0565b60405180910390f35b3480156104e257600080fd5b506104fd60048036038101906104f891906119f2565b611510565b60405161050a9190611ac0565b60405180910390f35b61052d600480360381019061052891906119f2565b61152d565b005b34801561053b57600080fd5b50610556600480360381019061055191906119f2565b6116ad565b6040516105639190611a3a565b60405180910390f35b8260066000868152602001908152602001600020600301600001908161059291906122c6565b50816006600086815260200190815260200160002060030160010190816105b991906122c6565b50806006600086815260200190815260200160002060030160020190816105e091906122c6565b5050505050565b60006004600083815260200190815260200160002060009054906101000a900460ff169050919050565b600160009054906101000a900473ffffffffffffffffffffffffffffffffffffffff1681565b600047905090565b80600360008981526020019081526020016000208190555060016004600089815260200190815260200160002060006101000a81548160ff021916908315150217905550856006600089815260200190815260200160002060070190816106a691906122c6565b508460066000898152602001908152602001600020600801819055508360066000898152602001908152602001600020600901819055508260066000898152602001908152602001600020600a0190805190602001906107079291906116cd565b508160066000898152602001908152602001600020600b01908161072b91906122c6565b5060016005600082825461073f91906123c7565b9250508190555050505050505050565b60008054906101000a900473ffffffffffffffffffffffffffffffffffffffff1681565b60606000806060806006600087815260200190815260200160002060070160066000888152602001908152602001600020600801546006600089815260200190815260200160002060090154600660008a8152602001908152602001600020600a01600660008b8152602001908152602001600020600b018480546107f7906120e9565b80601f0160208091040260200160405190810160405280929190818152602001828054610823906120e9565b80156108705780601f1061084557610100808354040283529160200191610870565b820191906000526020600020905b81548152906001019060200180831161085357829003601f168201915b5050505050945081805480602002602001604051908101604052809291908181526020016000905b828210156109445783829060005260206000200180546108b7906120e9565b80601f01602080910402602001604051908101604052809291908181526020018280546108e3906120e9565b80156109305780601f1061090557610100808354040283529160200191610930565b820191906000526020600020905b81548152906001019060200180831161091357829003601f168201915b505050505081526020019060010190610898565b505050509150808054610956906120e9565b80601f0160208091040260200160405190810160405280929190818152602001828054610982906120e9565b80156109cf5780601f106109a4576101008083540402835291602001916109cf565b820191906000526020600020905b8154815290600101906020018083116109b257829003601f168201915b505050505090509450945094509450945091939590929450565b60055481565b6060806060600660008581526020019081526020016000206003016000016006600086815260200190815260200160002060030160010160066000878152602001908152602001600020600301600201828054610a4b906120e9565b80601f0160208091040260200160405190810160405280929190818152602001828054610a77906120e9565b8015610ac45780601f10610a9957610100808354040283529160200191610ac4565b820191906000526020600020905b815481529060010190602001808311610aa757829003601f168201915b50505050509250818054610ad7906120e9565b80601f0160208091040260200160405190810160405280929190818152602001828054610b03906120e9565b8015610b505780601f10610b2557610100808354040283529160200191610b50565b820191906000526020600020905b815481529060010190602001808311610b3357829003601f168201915b50505050509150808054610b63906120e9565b80601f0160208091040260200160405190810160405280929190818152602001828054610b8f906120e9565b8015610bdc5780601f10610bb157610100808354040283529160200191610bdc565b820191906000526020600020905b815481529060010190602001808311610bbf57829003601f168201915b505050505090509250925092509193909250565b60026020528060005260406000206000915054906101000a900473ffffffffffffffffffffffffffffffffffffffff1681565b82600660008681526020019081526020016000206000019081610c4691906122c6565b5081600660008681526020019081526020016000206001019081610c6a91906122c6565b5080600660008681526020019081526020016000206006019081610c8e91906122c6565b5050505050565b60036020528060005260406000206000915090505481565b6000600554905090565b60018014610cc457600080fd5b60006002600083815260200190815260200160002060009054906101000a900473ffffffffffffffffffffffffffffffffffffffff1673ffffffffffffffffffffffffffffffffffffffff1647604051610d1d9061242c565b60006040518083038185875af1925050503d8060008114610d5a576040519150601f19603f3d011682016040523d82523d6000602084013e610d5f565b606091505b505090505050565b6060806060600660008581526020019081526020016000206000016006600086815260200190815260200160002060010160066000878152602001908152602001600020600601828054610dba906120e9565b80601f0160208091040260200160405190810160405280929190818152602001828054610de6906120e9565b8015610e335780601f10610e0857610100808354040283529160200191610e33565b820191906000526020600020905b815481529060010190602001808311610e1657829003601f168201915b50505050509250818054610e46906120e9565b80601f0160208091040260200160405190810160405280929190818152602001828054610e72906120e9565b8015610ebf5780601f10610e9457610100808354040283529160200191610ebf565b820191906000526020600020905b815481529060010190602001808311610ea257829003601f168201915b50505050509150808054610ed2906120e9565b80601f0160208091040260200160405190810160405280929190818152602001828054610efe906120e9565b8015610f4b5780601f10610f2057610100808354040283529160200191610f4b565b820191906000526020600020905b815481529060010190602001808311610f2e57829003601f168201915b505050505090509250925092509193909250565b806002600084815260200190815260200160002060006101000a81548173ffffffffffffffffffffffffffffffffffffffff021916908373ffffffffffffffffffffffffffffffffffffffff1602179055505050565b6006602052806000526040600020600091509050806000018054610fd8906120e9565b80601f0160208091040260200160405190810160405280929190818152602001828054611004906120e9565b80156110515780601f1061102657610100808354040283529160200191611051565b820191906000526020600020905b81548152906001019060200180831161103457829003601f168201915b505050505090806001018054611066906120e9565b80601f0160208091040260200160405190810160405280929190818152602001828054611092906120e9565b80156110df5780601f106110b4576101008083540402835291602001916110df565b820191906000526020600020905b8154815290600101906020018083116110c257829003601f168201915b5050505050908060020180546110f4906120e9565b80601f0160208091040260200160405190810160405280929190818152602001828054611120906120e9565b801561116d5780601f106111425761010080835404028352916020019161116d565b820191906000526020600020905b81548152906001019060200180831161115057829003601f168201915b50505050509080600301604051806060016040529081600082018054611192906120e9565b80601f01602080910402602001604051908101604052809291908181526020018280546111be906120e9565b801561120b5780601f106111e05761010080835404028352916020019161120b565b820191906000526020600020905b8154815290600101906020018083116111ee57829003601f168201915b50505050508152602001600182018054611224906120e9565b80601f0160208091040260200160405190810160405280929190818152602001828054611250906120e9565b801561129d5780601f106112725761010080835404028352916020019161129d565b820191906000526020600020905b81548152906001019060200180831161128057829003601f168201915b505050505081526020016002820180546112b6906120e9565b80601f01602080910402602001604051908101604052809291908181526020018280546112e2906120e9565b801561132f5780601f106113045761010080835404028352916020019161132f565b820191906000526020600020905b81548152906001019060200180831161131257829003601f168201915b50505050508152505090806006018054611348906120e9565b80601f0160208091040260200160405190810160405280929190818152602001828054611374906120e9565b80156113c15780601f10611396576101008083540402835291602001916113c1565b820191906000526020600020905b8154815290600101906020018083116113a457829003601f168201915b5050505050908060070180546113d6906120e9565b80601f0160208091040260200160405190810160405280929190818152602001828054611402906120e9565b801561144f5780601f106114245761010080835404028352916020019161144f565b820191906000526020600020905b81548152906001019060200180831161143257829003601f168201915b50505050509080600801549080600901549080600b018054611470906120e9565b80601f016020809104026020016040519081016040528092919081815260200182805461149c906120e9565b80156114e95780601f106114be576101008083540402835291602001916114e9565b820191906000526020600020905b8154815290600101906020018083116114cc57829003601f168201915b5050505050905089565b600060036000838152602001908152602001600020549050919050565b600060036000838152602001908152602001600020549050919050565b806002600082815260200190815260200160002060009054906101000a900473ffffffffffffffffffffffffffffffffffffffff1673ffffffffffffffffffffffffffffffffffffffff163373ffffffffffffffffffffffffffffffffffffffff16146115cf576040517f08c379a00000000000000000000000000000000000000000000000000000000081526004016115c69061248d565b60405180910390fd5b600360008381526020019081526020016000205434146115ee57600080fd5b6000600160009054906101000a900473ffffffffffffffffffffffffffffffffffffffff1673ffffffffffffffffffffffffffffffffffffffff16476040516116369061242c565b60006040518083038185875af1925050503d8060008114611673576040519150601f19603f3d011682016040523d82523d6000602084013e611678565b606091505b5050905060006004600085815260200190815260200160002060006101000a81548160ff021916908315150217905550505050565b60046020528060005260406000206000915054906101000a900460ff1681565b828054828255906000526020600020908101928215611715579160200282015b8281111561171457825182908161170491906122c6565b50916020019190600101906116ed565b5b5090506117229190611726565b5090565b5b80821115611746576000818161173d919061174a565b50600101611727565b5090565b508054611756906120e9565b6000825580601f106117685750611787565b601f016020900490600052602060002090810190611786919061178a565b5b50565b5b808211156117a357600081600090555060010161178b565b5090565b6000604051905090565b600080fd5b600080fd5b6000819050919050565b6117ce816117bb565b81146117d957600080fd5b50565b6000813590506117eb816117c5565b92915050565b600080fd5b600080fd5b6000601f19601f8301169050919050565b7f4e487b7100000000000000000000000000000000000000000000000000000000600052604160045260246000fd5b611844826117fb565b810181811067ffffffffffffffff821117156118635761186261180c565b5b80604052505050565b60006118766117a7565b9050611882828261183b565b919050565b600067ffffffffffffffff8211156118a2576118a161180c565b5b6118ab826117fb565b9050602081019050919050565b82818337600083830152505050565b60006118da6118d584611887565b61186c565b9050828152602081018484840111156118f6576118f56117f6565b5b6119018482856118b8565b509392505050565b600082601f83011261191e5761191d6117f1565b5b813561192e8482602086016118c7565b91505092915050565b60008060008060808587031215611951576119506117b1565b5b600061195f878288016117dc565b945050602085013567ffffffffffffffff8111156119805761197f6117b6565b5b61198c87828801611909565b935050604085013567ffffffffffffffff8111156119ad576119ac6117b6565b5b6119b987828801611909565b925050606085013567ffffffffffffffff8111156119da576119d96117b6565b5b6119e687828801611909565b91505092959194509250565b600060208284031215611a0857611a076117b1565b5b6000611a16848285016117dc565b91505092915050565b60008115159050919050565b611a3481611a1f565b82525050565b6000602082019050611a4f6000830184611a2b565b92915050565b600073ffffffffffffffffffffffffffffffffffffffff82169050919050565b6000611a8082611a55565b9050919050565b611a9081611a75565b82525050565b6000602082019050611aab6000830184611a87565b92915050565b611aba816117bb565b82525050565b6000602082019050611ad56000830184611ab1565b92915050565b600067ffffffffffffffff821115611af657611af561180c565b5b602082029050602081019050919050565b600080fd5b6000611b1f611b1a84611adb565b61186c565b90508083825260208201905060208402830185811115611b4257611b41611b07565b5b835b81811015611b8957803567ffffffffffffffff811115611b6757611b666117f1565b5b808601611b748982611909565b85526020850194505050602081019050611b44565b5050509392505050565b600082601f830112611ba857611ba76117f1565b5b8135611bb8848260208601611b0c565b91505092915050565b600080600080600080600060e0888a031215611be057611bdf6117b1565b5b6000611bee8a828b016117dc565b975050602088013567ffffffffffffffff811115611c0f57611c0e6117b6565b5b611c1b8a828b01611909565b9650506040611c2c8a828b016117dc565b9550506060611c3d8a828b016117dc565b945050608088013567ffffffffffffffff811115611c5e57611c5d6117b6565b5b611c6a8a828b01611b93565b93505060a088013567ffffffffffffffff811115611c8b57611c8a6117b6565b5b611c978a828b01611909565b92505060c0611ca88a828b016117dc565b91505092959891949750929550565b6000611cc282611a55565b9050919050565b611cd281611cb7565b82525050565b6000602082019050611ced6000830184611cc9565b92915050565b600081519050919050565b600082825260208201905092915050565b60005b83811015611d2d578082015181840152602081019050611d12565b60008484015250505050565b6000611d4482611cf3565b611d4e8185611cfe565b9350611d5e818560208601611d0f565b611d67816117fb565b840191505092915050565b600081519050919050565b600082825260208201905092915050565b6000819050602082019050919050565b600082825260208201905092915050565b6000611dba82611cf3565b611dc48185611d9e565b9350611dd4818560208601611d0f565b611ddd816117fb565b840191505092915050565b6000611df48383611daf565b905092915050565b6000602082019050919050565b6000611e1482611d72565b611e1e8185611d7d565b935083602082028501611e3085611d8e565b8060005b85811015611e6c5784840389528151611e4d8582611de8565b9450611e5883611dfc565b925060208a01995050600181019050611e34565b50829750879550505050505092915050565b600060a0820190508181036000830152611e988188611d39565b9050611ea76020830187611ab1565b611eb46040830186611ab1565b8181036060830152611ec68185611e09565b90508181036080830152611eda8184611d39565b90509695505050505050565b60006060820190508181036000830152611f008186611d39565b90508181036020830152611f148185611d39565b90508181036040830152611f288184611d39565b9050949350505050565b611f3b81611cb7565b8114611f4657600080fd5b50565b600081359050611f5881611f32565b92915050565b60008060408385031215611f7557611f746117b1565b5b6000611f83858286016117dc565b9250506020611f9485828601611f49565b9150509250929050565b60006060830160008301518482036000860152611fbb8282611daf565b91505060208301518482036020860152611fd58282611daf565b91505060408301518482036040860152611fef8282611daf565b9150508091505092915050565b6000610120820190508181036000830152612017818c611d39565b9050818103602083015261202b818b611d39565b9050818103604083015261203f818a611d39565b905081810360608301526120538189611f9e565b905081810360808301526120678188611d39565b905081810360a083015261207b8187611d39565b905061208a60c0830186611ab1565b61209760e0830185611ab1565b8181036101008301526120aa8184611d39565b90509a9950505050505050505050565b7f4e487b7100000000000000000000000000000000000000000000000000000000600052602260045260246000fd5b6000600282049050600182168061210157607f821691505b602082108103612114576121136120ba565b5b50919050565b60008190508160005260206000209050919050565b60006020601f8301049050919050565b600082821b905092915050565b60006008830261217c7fffffffffffffffffffffffffffffffffffffffffffffffffffffffffffffffff8261213f565b612186868361213f565b95508019841693508086168417925050509392505050565b6000819050919050565b60006121c36121be6121b9846117bb565b61219e565b6117bb565b9050919050565b6000819050919050565b6121dd836121a8565b6121f16121e9826121ca565b84845461214c565b825550505050565b600090565b6122066121f9565b6122118184846121d4565b505050565b5b818110156122355761222a6000826121fe565b600181019050612217565b5050565b601f82111561227a5761224b8161211a565b6122548461212f565b81016020851015612263578190505b61227761226f8561212f565b830182612216565b50505b505050565b600082821c905092915050565b600061229d6000198460080261227f565b1980831691505092915050565b60006122b6838361228c565b9150826002028217905092915050565b6122cf82611cf3565b67ffffffffffffffff8111156122e8576122e761180c565b5b6122f282546120e9565b6122fd828285612239565b600060209050601f831160018114612330576000841561231e578287015190505b61232885826122aa565b865550612390565b601f19841661233e8661211a565b60005b8281101561236657848901518255600182019150602085019450602081019050612341565b86831015612383578489015161237f601f89168261228c565b8355505b6001600288020188555050505b505050505050565b7f4e487b7100000000000000000000000000000000000000000000000000000000600052601160045260246000fd5b60006123d2826117bb565b91506123dd836117bb565b92508282019050808211156123f5576123f4612398565b5b92915050565b600081905092915050565b50565b60006124166000836123fb565b915061242182612406565b600082019050919050565b600061243782612409565b9150819050919050565b7f4f6e6c792062757965722063616e207573652074686973206d6574686f640000600082015250565b6000612477601e83611cfe565b915061248282612441565b602082019050919050565b600060208201905081810360008301526124a68161246a565b905091905056fea2646970667358221220df639164babb50cca6da8b3deebd369dbf098ea76fe2d080bd57f17343c5a4a764736f6c63430008110033",
  "linkReferences": {},
  "deployedLinkReferences": {}
}