{
  "_format": "hh-sol-artifact-1",
  "contractName": "Contract",
  "sourceName": "contracts/Contract.sol",
  "abi": [
    {
      "inputs": [
        {
          "internalType": "address",
          "name": "_nftaddress",
          "type": "address"
        },
        {
          "internalType": "address payable",
          "name": "_seller",
          "type": "address"
        }
      ],
      "stateMutability": "nonpayable",
      "type": "constructor"
    },
    {
      "inputs": [
        {
          "internalType": "uint256",
          "name": "_nftID",
          "type": "uint256"
        }
      ],
      "name": "bought",
      "outputs": [],
      "stateMutability": "payable",
      "type": "function"
    },
    {
      "inputs": [
        {
          "internalType": "uint256",
          "name": "",
          "type": "uint256"
        }
      ],
      "name": "buyer",
      "outputs": [
        {
          "internalType": "address",
          "name": "",
          "type": "address"
        }
      ],
      "stateMutability": "view",
      "type": "function"
    },
    {
      "inputs": [
        {
          "internalType": "uint256",
          "name": "_nftID",
          "type": "uint256"
        }
      ],
      "name": "cancelSale",
      "outputs": [],
      "stateMutability": "nonpayable",
      "type": "function"
    },
    {
      "inputs": [
        {
          "internalType": "uint256",
          "name": "_nftID",
          "type": "uint256"
        },
        {
          "internalType": "address",
          "name": "_buyer",
          "type": "address"
        }
      ],
      "name": "declareBuyer",
      "outputs": [],
      "stateMutability": "nonpayable",
      "type": "function"
    },
    {
      "inputs": [],
      "name": "getBalance",
      "outputs": [
        {
          "internalType": "uint256",
          "name": "",
          "type": "uint256"
        }
      ],
      "stateMutability": "view",
      "type": "function"
    },
    {
      "inputs": [],
      "name": "index",
      "outputs": [
        {
          "internalType": "uint256",
          "name": "",
          "type": "uint256"
        }
      ],
      "stateMutability": "view",
      "type": "function"
    },
    {
      "inputs": [
        {
          "internalType": "uint256",
          "name": "",
          "type": "uint256"
        }
      ],
      "name": "isListed",
      "outputs": [
        {
          "internalType": "bool",
          "name": "",
          "type": "bool"
        }
      ],
      "stateMutability": "view",
      "type": "function"
    },
    {
      "inputs": [
        {
          "internalType": "uint256",
          "name": "_nftID",
          "type": "uint256"
        },
        {
          "internalType": "string",
          "name": "_amenities",
          "type": "string"
        },
        {
          "internalType": "uint256",
          "name": "_sqfoot",
          "type": "uint256"
        },
        {
          "internalType": "uint256",
          "name": "_bedno",
          "type": "uint256"
        },
        {
          "internalType": "string",
          "name": "_img",
          "type": "string"
        },
        {
          "internalType": "string",
          "name": "_descp",
          "type": "string"
        },
        {
          "internalType": "uint256",
          "name": "_purchasePrice",
          "type": "uint256"
        }
      ],
      "name": "list1",
      "outputs": [],
      "stateMutability": "nonpayable",
      "type": "function"
    },
    {
      "inputs": [
        {
          "internalType": "uint256",
          "name": "_nftID",
          "type": "uint256"
        },
        {
          "internalType": "string",
          "name": "_city",
          "type": "string"
        },
        {
          "internalType": "string",
          "name": "_country",
          "type": "string"
        },
        {
          "internalType": "string",
          "name": "_addline",
          "type": "string"
        }
      ],
      "name": "list2",
      "outputs": [],
      "stateMutability": "nonpayable",
      "type": "function"
    },
    {
      "inputs": [
        {
          "internalType": "uint256",
          "name": "_nftID",
          "type": "uint256"
        },
        {
          "internalType": "string",
          "name": "_name",
          "type": "string"
        },
        {
          "internalType": "string",
          "name": "_email",
          "type": "string"
        },
        {
          "internalType": "string",
          "name": "_proptype",
          "type": "string"
        }
      ],
      "name": "list3",
      "outputs": [],
      "stateMutability": "nonpayable",
      "type": "function"
    },
    {
      "inputs": [
        {
          "internalType": "uint256",
          "name": "_nftID",
          "type": "uint256"
        }
      ],
      "name": "listed",
      "outputs": [
        {
          "internalType": "bool",
          "name": "",
          "type": "bool"
        }
      ],
      "stateMutability": "view",
      "type": "function"
    },
    {
      "inputs": [
        {
          "internalType": "uint256",
          "name": "_nftID",
          "type": "uint256"
        }
      ],
      "name": "meta1",
      "outputs": [
        {
          "internalType": "string",
          "name": "",
          "type": "string"
        },
        {
          "internalType": "uint256",
          "name": "",
          "type": "uint256"
        },
        {
          "internalType": "uint256",
          "name": "",
          "type": "uint256"
        },
        {
          "internalType": "string",
          "name": "",
          "type": "string"
        },
        {
          "internalType": "string",
          "name": "",
          "type": "string"
        }
      ],
      "stateMutability": "view",
      "type": "function"
    },
    {
      "inputs": [
        {
          "internalType": "uint256",
          "name": "_nftID",
          "type": "uint256"
        }
      ],
      "name": "meta2",
      "outputs": [
        {
          "internalType": "string",
          "name": "",
          "type": "string"
        },
        {
          "internalType": "string",
          "name": "",
          "type": "string"
        },
        {
          "internalType": "string",
          "name": "",
          "type": "string"
        }
      ],
      "stateMutability": "view",
      "type": "function"
    },
    {
      "inputs": [
        {
          "internalType": "uint256",
          "name": "_nftID",
          "type": "uint256"
        }
      ],
      "name": "meta3",
      "outputs": [
        {
          "internalType": "string",
          "name": "",
          "type": "string"
        },
        {
          "internalType": "string",
          "name": "",
          "type": "string"
        },
        {
          "internalType": "string",
          "name": "",
          "type": "string"
        }
      ],
      "stateMutability": "view",
      "type": "function"
    },
    {
      "inputs": [
        {
          "internalType": "uint256",
          "name": "",
          "type": "uint256"
        }
      ],
      "name": "metadata",
      "outputs": [
        {
          "internalType": "string",
          "name": "name",
          "type": "string"
        },
        {
          "internalType": "string",
          "name": "email",
          "type": "string"
        },
        {
          "internalType": "string",
          "name": "phoneno",
          "type": "string"
        },
        {
          "components": [
            {
              "internalType": "string",
              "name": "city",
              "type": "string"
            },
            {
              "internalType": "string",
              "name": "country",
              "type": "string"
            },
            {
              "internalType": "string",
              "name": "addline",
              "type": "string"
            }
          ],
          "internalType": "struct Contract.adds",
          "name": "adds",
          "type": "tuple"
        },
        {
          "internalType": "string",
          "name": "proptype",
          "type": "string"
        },
        {
          "internalType": "string",
          "name": "amenities",
          "type": "string"
        },
        {
          "internalType": "uint256",
          "name": "sqfoot",
          "type": "uint256"
        },
        {
          "internalType": "uint256",
          "name": "bedno",
          "type": "uint256"
        },
        {
          "internalType": "string",
          "name": "img",
          "type": "string"
        },
        {
          "internalType": "string",
          "name": "descp",
          "type": "string"
        }
      ],
      "stateMutability": "view",
      "type": "function"
    },
    {
      "inputs": [],
      "name": "nftaddress",
      "outputs": [
        {
          "internalType": "address",
          "name": "",
          "type": "address"
        }
      ],
      "stateMutability": "view",
      "type": "function"
    },
    {
      "inputs": [
        {
          "internalType": "uint256",
          "name": "_nftID",
          "type": "uint256"
        }
      ],
      "name": "pr",
      "outputs": [
        {
          "internalType": "uint256",
          "name": "",
          "type": "uint256"
        }
      ],
      "stateMutability": "view",
      "type": "function"
    },
    {
      "inputs": [
        {
          "internalType": "uint256",
          "name": "",
          "type": "uint256"
        }
      ],
      "name": "purchasePrice",
      "outputs": [
        {
          "internalType": "uint256",
          "name": "",
          "type": "uint256"
        }
      ],
      "stateMutability": "view",
      "type": "function"
    },
    {
      "inputs": [
        {
          "internalType": "uint256",
          "name": "_nftID",
          "type": "uint256"
        }
      ],
      "name": "retprice",
      "outputs": [
        {
          "internalType": "uint256",
          "name": "",
          "type": "uint256"
        }
      ],
      "stateMutability": "view",
      "type": "function"
    },
    {
      "inputs": [],
      "name": "seller",
      "outputs": [
        {
          "internalType": "address payable",
          "name": "",
          "type": "address"
        }
      ],
      "stateMutability": "view",
      "type": "function"
    },
    {
      "inputs": [],
      "name": "store",
      "outputs": [
        {
          "internalType": "uint256",
          "name": "",
          "type": "uint256"
        }
      ],
      "stateMutability": "view",
      "type": "function"
    },
    {
      "stateMutability": "payable",
      "type": "receive"
    }
  ],
  "bytecode": "0x608060405260006005553480156200001657600080fd5b50604051620024833803806200248383398181016040528101906200003c919062000174565b816000806101000a81548173ffffffffffffffffffffffffffffffffffffffff021916908373ffffffffffffffffffffffffffffffffffffffff16021790555080600160006101000a81548173ffffffffffffffffffffffffffffffffffffffff021916908373ffffffffffffffffffffffffffffffffffffffff1602179055505050620001bb565b600080fd5b600073ffffffffffffffffffffffffffffffffffffffff82169050919050565b6000620000f782620000ca565b9050919050565b6200010981620000ea565b81146200011557600080fd5b50565b6000815190506200012981620000fe565b92915050565b60006200013c82620000ca565b9050919050565b6200014e816200012f565b81146200015a57600080fd5b50565b6000815190506200016e8162000143565b92915050565b600080604083850312156200018e576200018d620000c5565b5b60006200019e8582860162000118565b9250506020620001b1858286016200015d565b9150509250929050565b6122b880620001cb6000396000f3fe60806040526004361061012e5760003560e01c806377fbc4ae116100ab578063d93be9b21161006f578063d93be9b21461042b578063e3684e3914610454578063e82dcf211461049a578063e85d826d146104d7578063fbbbd65b14610514578063fcce48831461053057610135565b806377fbc4ae14610332578063975057e71461036f578063bd94b0051461039a578063c17dca22146103c3578063c5be388a1461040257610135565b8063297016b1116100f2578063297016b1146102215780632986c0e51461026257806344c592561461028d5780634dd4acaf146102cc57806355f26f9f1461030957610135565b8063039146e81461013a57806304c312511461016357806308551a53146101a057806312065fe0146101cb5780632827e5bb146101f657610135565b3661013557005b600080fd5b34801561014657600080fd5b50610161600480360381019061015c919061189e565b61056d565b005b34801561016f57600080fd5b5061018a60048036038101906101859190611959565b6105e8565b60405161019791906119a1565b60405180910390f35b3480156101ac57600080fd5b506101b5610612565b6040516101c291906119fd565b60405180910390f35b3480156101d757600080fd5b506101e0610638565b6040516101ed9190611a27565b60405180910390f35b34801561020257600080fd5b5061020b610640565b6040516102189190611a63565b60405180910390f35b34801561022d57600080fd5b5061024860048036038101906102439190611959565b610664565b604051610259959493929190611afd565b60405180910390f35b34801561026e57600080fd5b50610277610893565b6040516102849190611a27565b60405180910390f35b34801561029957600080fd5b506102b460048036038101906102af9190611959565b610899565b6040516102c393929190611b65565b60405180910390f35b3480156102d857600080fd5b506102f360048036038101906102ee9190611959565b610a9a565b6040516103009190611a63565b60405180910390f35b34801561031557600080fd5b50610330600480360381019061032b919061189e565b610acd565b005b34801561033e57600080fd5b5061035960048036038101906103549190611959565b610b3f565b6040516103669190611a27565b60405180910390f35b34801561037b57600080fd5b50610384610b57565b6040516103919190611a27565b60405180910390f35b3480156103a657600080fd5b506103c160048036038101906103bc9190611959565b610b61565b005b3480156103cf57600080fd5b506103ea60048036038101906103e59190611959565b610c11565b6040516103f993929190611b65565b60405180910390f35b34801561040e57600080fd5b5061042960048036038101906104249190611bdd565b610e09565b005b34801561043757600080fd5b50610452600480360381019061044d9190611c1d565b610e5f565b005b34801561046057600080fd5b5061047b60048036038101906104769190611959565b610f68565b6040516104919a99989796959493929190611dbb565b60405180910390f35b3480156104a657600080fd5b506104c160048036038101906104bc9190611959565b611534565b6040516104ce9190611a27565b60405180910390f35b3480156104e357600080fd5b506104fe60048036038101906104f99190611959565b611551565b60405161050b9190611a27565b60405180910390f35b61052e60048036038101906105299190611959565b61156e565b005b34801561053c57600080fd5b5061055760048036038101906105529190611959565b6116ee565b60405161056491906119a1565b60405180910390f35b82600660008681526020019081526020016000206003016000019081610593919061209b565b50816006600086815260200190815260200160002060030160010190816105ba919061209b565b50806006600086815260200190815260200160002060030160020190816105e1919061209b565b5050505050565b60006004600083815260200190815260200160002060009054906101000a900460ff169050919050565b600160009054906101000a900473ffffffffffffffffffffffffffffffffffffffff1681565b600047905090565b60008054906101000a900473ffffffffffffffffffffffffffffffffffffffff1681565b60606000806060806006600087815260200190815260200160002060070160066000888152602001908152602001600020600801546006600089815260200190815260200160002060090154600660008a8152602001908152602001600020600a01600660008b8152602001908152602001600020600b018480546106e890611ebe565b80601f016020809104026020016040519081016040528092919081815260200182805461071490611ebe565b80156107615780601f1061073657610100808354040283529160200191610761565b820191906000526020600020905b81548152906001019060200180831161074457829003601f168201915b5050505050945081805461077490611ebe565b80601f01602080910402602001604051908101604052809291908181526020018280546107a090611ebe565b80156107ed5780601f106107c2576101008083540402835291602001916107ed565b820191906000526020600020905b8154815290600101906020018083116107d057829003601f168201915b5050505050915080805461080090611ebe565b80601f016020809104026020016040519081016040528092919081815260200182805461082c90611ebe565b80156108795780601f1061084e57610100808354040283529160200191610879565b820191906000526020600020905b81548152906001019060200180831161085c57829003601f168201915b505050505090509450945094509450945091939590929450565b60055481565b60608060606006600085815260200190815260200160002060030160000160066000868152602001908152602001600020600301600101600660008781526020019081526020016000206003016002018280546108f590611ebe565b80601f016020809104026020016040519081016040528092919081815260200182805461092190611ebe565b801561096e5780601f106109435761010080835404028352916020019161096e565b820191906000526020600020905b81548152906001019060200180831161095157829003601f168201915b5050505050925081805461098190611ebe565b80601f01602080910402602001604051908101604052809291908181526020018280546109ad90611ebe565b80156109fa5780601f106109cf576101008083540402835291602001916109fa565b820191906000526020600020905b8154815290600101906020018083116109dd57829003601f168201915b50505050509150808054610a0d90611ebe565b80601f0160208091040260200160405190810160405280929190818152602001828054610a3990611ebe565b8015610a865780601f10610a5b57610100808354040283529160200191610a86565b820191906000526020600020905b815481529060010190602001808311610a6957829003601f168201915b505050505090509250925092509193909250565b60026020528060005260406000206000915054906101000a900473ffffffffffffffffffffffffffffffffffffffff1681565b82600660008681526020019081526020016000206000019081610af0919061209b565b5081600660008681526020019081526020016000206001019081610b14919061209b565b5080600660008681526020019081526020016000206006019081610b38919061209b565b5050505050565b60036020528060005260406000206000915090505481565b6000600554905090565b60018014610b6e57600080fd5b60006002600083815260200190815260200160002060009054906101000a900473ffffffffffffffffffffffffffffffffffffffff1673ffffffffffffffffffffffffffffffffffffffff1647604051610bc79061219e565b60006040518083038185875af1925050503d8060008114610c04576040519150601f19603f3d011682016040523d82523d6000602084013e610c09565b606091505b505090505050565b6060806060600660008581526020019081526020016000206000016006600086815260200190815260200160002060010160066000878152602001908152602001600020600601828054610c6490611ebe565b80601f0160208091040260200160405190810160405280929190818152602001828054610c9090611ebe565b8015610cdd5780601f10610cb257610100808354040283529160200191610cdd565b820191906000526020600020905b815481529060010190602001808311610cc057829003601f168201915b50505050509250818054610cf090611ebe565b80601f0160208091040260200160405190810160405280929190818152602001828054610d1c90611ebe565b8015610d695780601f10610d3e57610100808354040283529160200191610d69565b820191906000526020600020905b815481529060010190602001808311610d4c57829003601f168201915b50505050509150808054610d7c90611ebe565b80601f0160208091040260200160405190810160405280929190818152602001828054610da890611ebe565b8015610df55780601f10610dca57610100808354040283529160200191610df5565b820191906000526020600020905b815481529060010190602001808311610dd857829003601f168201915b505050505090509250925092509193909250565b806002600084815260200190815260200160002060006101000a81548173ffffffffffffffffffffffffffffffffffffffff021916908373ffffffffffffffffffffffffffffffffffffffff1602179055505050565b80600360008981526020019081526020016000208190555060016004600089815260200190815260200160002060006101000a81548160ff02191690831515021790555085600660008981526020019081526020016000206007019081610ec6919061209b565b508460066000898152602001908152602001600020600801819055508360066000898152602001908152602001600020600901819055508260066000898152602001908152602001600020600a019081610f20919061209b565b508160066000898152602001908152602001600020600b019081610f44919061209b565b50600160056000828254610f5891906121e2565b9250508190555050505050505050565b6006602052806000526040600020600091509050806000018054610f8b90611ebe565b80601f0160208091040260200160405190810160405280929190818152602001828054610fb790611ebe565b80156110045780601f10610fd957610100808354040283529160200191611004565b820191906000526020600020905b815481529060010190602001808311610fe757829003601f168201915b50505050509080600101805461101990611ebe565b80601f016020809104026020016040519081016040528092919081815260200182805461104590611ebe565b80156110925780601f1061106757610100808354040283529160200191611092565b820191906000526020600020905b81548152906001019060200180831161107557829003601f168201915b5050505050908060020180546110a790611ebe565b80601f01602080910402602001604051908101604052809291908181526020018280546110d390611ebe565b80156111205780601f106110f557610100808354040283529160200191611120565b820191906000526020600020905b81548152906001019060200180831161110357829003601f168201915b5050505050908060030160405180606001604052908160008201805461114590611ebe565b80601f016020809104026020016040519081016040528092919081815260200182805461117190611ebe565b80156111be5780601f10611193576101008083540402835291602001916111be565b820191906000526020600020905b8154815290600101906020018083116111a157829003601f168201915b505050505081526020016001820180546111d790611ebe565b80601f016020809104026020016040519081016040528092919081815260200182805461120390611ebe565b80156112505780601f1061122557610100808354040283529160200191611250565b820191906000526020600020905b81548152906001019060200180831161123357829003601f168201915b5050505050815260200160028201805461126990611ebe565b80601f016020809104026020016040519081016040528092919081815260200182805461129590611ebe565b80156112e25780601f106112b7576101008083540402835291602001916112e2565b820191906000526020600020905b8154815290600101906020018083116112c557829003601f168201915b505050505081525050908060060180546112fb90611ebe565b80601f016020809104026020016040519081016040528092919081815260200182805461132790611ebe565b80156113745780601f1061134957610100808354040283529160200191611374565b820191906000526020600020905b81548152906001019060200180831161135757829003601f168201915b50505050509080600701805461138990611ebe565b80601f01602080910402602001604051908101604052809291908181526020018280546113b590611ebe565b80156114025780601f106113d757610100808354040283529160200191611402565b820191906000526020600020905b8154815290600101906020018083116113e557829003601f168201915b50505050509080600801549080600901549080600a01805461142390611ebe565b80601f016020809104026020016040519081016040528092919081815260200182805461144f90611ebe565b801561149c5780601f106114715761010080835404028352916020019161149c565b820191906000526020600020905b81548152906001019060200180831161147f57829003601f168201915b50505050509080600b0180546114b190611ebe565b80601f01602080910402602001604051908101604052809291908181526020018280546114dd90611ebe565b801561152a5780601f106114ff5761010080835404028352916020019161152a565b820191906000526020600020905b81548152906001019060200180831161150d57829003601f168201915b505050505090508a565b600060036000838152602001908152602001600020549050919050565b600060036000838152602001908152602001600020549050919050565b806002600082815260200190815260200160002060009054906101000a900473ffffffffffffffffffffffffffffffffffffffff1673ffffffffffffffffffffffffffffffffffffffff163373ffffffffffffffffffffffffffffffffffffffff1614611610576040517f08c379a000000000000000000000000000000000000000000000000000000000815260040161160790612262565b60405180910390fd5b6003600083815260200190815260200160002054341461162f57600080fd5b6000600160009054906101000a900473ffffffffffffffffffffffffffffffffffffffff1673ffffffffffffffffffffffffffffffffffffffff16476040516116779061219e565b60006040518083038185875af1925050503d80600081146116b4576040519150601f19603f3d011682016040523d82523d6000602084013e6116b9565b606091505b5050905060006004600085815260200190815260200160002060006101000a81548160ff021916908315150217905550505050565b60046020528060005260406000206000915054906101000a900460ff1681565b6000604051905090565b600080fd5b600080fd5b6000819050919050565b61173581611722565b811461174057600080fd5b50565b6000813590506117528161172c565b92915050565b600080fd5b600080fd5b6000601f19601f8301169050919050565b7f4e487b7100000000000000000000000000000000000000000000000000000000600052604160045260246000fd5b6117ab82611762565b810181811067ffffffffffffffff821117156117ca576117c9611773565b5b80604052505050565b60006117dd61170e565b90506117e982826117a2565b919050565b600067ffffffffffffffff82111561180957611808611773565b5b61181282611762565b9050602081019050919050565b82818337600083830152505050565b600061184161183c846117ee565b6117d3565b90508281526020810184848401111561185d5761185c61175d565b5b61186884828561181f565b509392505050565b600082601f83011261188557611884611758565b5b813561189584826020860161182e565b91505092915050565b600080600080608085870312156118b8576118b7611718565b5b60006118c687828801611743565b945050602085013567ffffffffffffffff8111156118e7576118e661171d565b5b6118f387828801611870565b935050604085013567ffffffffffffffff8111156119145761191361171d565b5b61192087828801611870565b925050606085013567ffffffffffffffff8111156119415761194061171d565b5b61194d87828801611870565b91505092959194509250565b60006020828403121561196f5761196e611718565b5b600061197d84828501611743565b91505092915050565b60008115159050919050565b61199b81611986565b82525050565b60006020820190506119b66000830184611992565b92915050565b600073ffffffffffffffffffffffffffffffffffffffff82169050919050565b60006119e7826119bc565b9050919050565b6119f7816119dc565b82525050565b6000602082019050611a1260008301846119ee565b92915050565b611a2181611722565b82525050565b6000602082019050611a3c6000830184611a18565b92915050565b6000611a4d826119bc565b9050919050565b611a5d81611a42565b82525050565b6000602082019050611a786000830184611a54565b92915050565b600081519050919050565b600082825260208201905092915050565b60005b83811015611ab8578082015181840152602081019050611a9d565b60008484015250505050565b6000611acf82611a7e565b611ad98185611a89565b9350611ae9818560208601611a9a565b611af281611762565b840191505092915050565b600060a0820190508181036000830152611b178188611ac4565b9050611b266020830187611a18565b611b336040830186611a18565b8181036060830152611b458185611ac4565b90508181036080830152611b598184611ac4565b90509695505050505050565b60006060820190508181036000830152611b7f8186611ac4565b90508181036020830152611b938185611ac4565b90508181036040830152611ba78184611ac4565b9050949350505050565b611bba81611a42565b8114611bc557600080fd5b50565b600081359050611bd781611bb1565b92915050565b60008060408385031215611bf457611bf3611718565b5b6000611c0285828601611743565b9250506020611c1385828601611bc8565b9150509250929050565b600080600080600080600060e0888a031215611c3c57611c3b611718565b5b6000611c4a8a828b01611743565b975050602088013567ffffffffffffffff811115611c6b57611c6a61171d565b5b611c778a828b01611870565b9650506040611c888a828b01611743565b9550506060611c998a828b01611743565b945050608088013567ffffffffffffffff811115611cba57611cb961171d565b5b611cc68a828b01611870565b93505060a088013567ffffffffffffffff811115611ce757611ce661171d565b5b611cf38a828b01611870565b92505060c0611d048a828b01611743565b91505092959891949750929550565b600082825260208201905092915050565b6000611d2f82611a7e565b611d398185611d13565b9350611d49818560208601611a9a565b611d5281611762565b840191505092915050565b60006060830160008301518482036000860152611d7a8282611d24565b91505060208301518482036020860152611d948282611d24565b91505060408301518482036040860152611dae8282611d24565b9150508091505092915050565b6000610140820190508181036000830152611dd6818d611ac4565b90508181036020830152611dea818c611ac4565b90508181036040830152611dfe818b611ac4565b90508181036060830152611e12818a611d5d565b90508181036080830152611e268189611ac4565b905081810360a0830152611e3a8188611ac4565b9050611e4960c0830187611a18565b611e5660e0830186611a18565b818103610100830152611e698185611ac4565b9050818103610120830152611e7e8184611ac4565b90509b9a5050505050505050505050565b7f4e487b7100000000000000000000000000000000000000000000000000000000600052602260045260246000fd5b60006002820490506001821680611ed657607f821691505b602082108103611ee957611ee8611e8f565b5b50919050565b60008190508160005260206000209050919050565b60006020601f8301049050919050565b600082821b905092915050565b600060088302611f517fffffffffffffffffffffffffffffffffffffffffffffffffffffffffffffffff82611f14565b611f5b8683611f14565b95508019841693508086168417925050509392505050565b6000819050919050565b6000611f98611f93611f8e84611722565b611f73565b611722565b9050919050565b6000819050919050565b611fb283611f7d565b611fc6611fbe82611f9f565b848454611f21565b825550505050565b600090565b611fdb611fce565b611fe6818484611fa9565b505050565b5b8181101561200a57611fff600082611fd3565b600181019050611fec565b5050565b601f82111561204f5761202081611eef565b61202984611f04565b81016020851015612038578190505b61204c61204485611f04565b830182611feb565b50505b505050565b600082821c905092915050565b600061207260001984600802612054565b1980831691505092915050565b600061208b8383612061565b9150826002028217905092915050565b6120a482611a7e565b67ffffffffffffffff8111156120bd576120bc611773565b5b6120c78254611ebe565b6120d282828561200e565b600060209050601f83116001811461210557600084156120f3578287015190505b6120fd858261207f565b865550612165565b601f19841661211386611eef565b60005b8281101561213b57848901518255600182019150602085019450602081019050612116565b868310156121585784890151612154601f891682612061565b8355505b6001600288020188555050505b505050505050565b600081905092915050565b50565b600061218860008361216d565b915061219382612178565b600082019050919050565b60006121a98261217b565b9150819050919050565b7f4e487b7100000000000000000000000000000000000000000000000000000000600052601160045260246000fd5b60006121ed82611722565b91506121f883611722565b92508282019050808211156122105761220f6121b3565b5b92915050565b7f4f6e6c792062757965722063616e207573652074686973206d6574686f640000600082015250565b600061224c601e83611a89565b915061225782612216565b602082019050919050565b6000602082019050818103600083015261227b8161223f565b905091905056fea26469706673582212206912463186f7bf4a12af9b7c90c195abf8e9391c5d2fadc3c4b81f95a744c36364736f6c63430008110033",
  "linkReferences": {},
  "deployedLinkReferences": {}
}