{
  "_format": "hh-sol-artifact-1",
  "contractName": "Contract",
  "sourceName": "contracts/Contract.sol",
  "abi": [
    {
      "inputs": [
        {
          "internalType": "address",
          "name": "_nftaddress",
          "type": "address"
        },
        {
          "internalType": "address payable",
          "name": "_seller",
          "type": "address"
        }
      ],
      "stateMutability": "nonpayable",
      "type": "constructor"
    },
    {
      "inputs": [
        {
          "internalType": "uint256",
          "name": "_nftID",
          "type": "uint256"
        }
      ],
      "name": "bought",
      "outputs": [],
      "stateMutability": "payable",
      "type": "function"
    },
    {
      "inputs": [
        {
          "internalType": "uint256",
          "name": "",
          "type": "uint256"
        }
      ],
      "name": "buyer",
      "outputs": [
        {
          "internalType": "address",
          "name": "",
          "type": "address"
        }
      ],
      "stateMutability": "view",
      "type": "function"
    },
    {
      "inputs": [
        {
          "internalType": "uint256",
          "name": "_nftID",
          "type": "uint256"
        }
      ],
      "name": "cancelSale",
      "outputs": [],
      "stateMutability": "nonpayable",
      "type": "function"
    },
    {
      "inputs": [
        {
          "internalType": "uint256",
          "name": "_nftID",
          "type": "uint256"
        },
        {
          "internalType": "address",
          "name": "_buyer",
          "type": "address"
        }
      ],
      "name": "declareBuyer",
      "outputs": [],
      "stateMutability": "nonpayable",
      "type": "function"
    },
    {
      "inputs": [],
      "name": "getBalance",
      "outputs": [
        {
          "internalType": "uint256",
          "name": "",
          "type": "uint256"
        }
      ],
      "stateMutability": "view",
      "type": "function"
    },
    {
      "inputs": [],
      "name": "index",
      "outputs": [
        {
          "internalType": "uint256",
          "name": "",
          "type": "uint256"
        }
      ],
      "stateMutability": "view",
      "type": "function"
    },
    {
      "inputs": [
        {
          "internalType": "uint256",
          "name": "",
          "type": "uint256"
        }
      ],
      "name": "isListed",
      "outputs": [
        {
          "internalType": "bool",
          "name": "",
          "type": "bool"
        }
      ],
      "stateMutability": "view",
      "type": "function"
    },
    {
      "inputs": [
        {
          "internalType": "uint256",
          "name": "_nftID",
          "type": "uint256"
        },
        {
          "internalType": "uint256",
          "name": "_purchasePrice",
          "type": "uint256"
        },
        {
          "internalType": "string",
          "name": "_email",
          "type": "string"
        },
        {
          "internalType": "string",
          "name": "_location",
          "type": "string"
        },
        {
          "internalType": "uint256",
          "name": "_phnu",
          "type": "uint256"
        }
      ],
      "name": "list",
      "outputs": [],
      "stateMutability": "payable",
      "type": "function"
    },
    {
      "inputs": [
        {
          "internalType": "uint256",
          "name": "_nftID",
          "type": "uint256"
        }
      ],
      "name": "listed",
      "outputs": [
        {
          "internalType": "bool",
          "name": "",
          "type": "bool"
        }
      ],
      "stateMutability": "view",
      "type": "function"
    },
    {
      "inputs": [
        {
          "internalType": "uint256",
          "name": "_nftID",
          "type": "uint256"
        }
      ],
      "name": "meta",
      "outputs": [
        {
          "internalType": "uint256",
          "name": "",
          "type": "uint256"
        },
        {
          "internalType": "string",
          "name": "",
          "type": "string"
        },
        {
          "internalType": "string",
          "name": "",
          "type": "string"
        }
      ],
      "stateMutability": "view",
      "type": "function"
    },
    {
      "inputs": [
        {
          "internalType": "uint256",
          "name": "",
          "type": "uint256"
        }
      ],
      "name": "metadata",
      "outputs": [
        {
          "internalType": "string",
          "name": "email",
          "type": "string"
        },
        {
          "internalType": "string",
          "name": "location",
          "type": "string"
        },
        {
          "internalType": "uint256",
          "name": "phnu",
          "type": "uint256"
        }
      ],
      "stateMutability": "view",
      "type": "function"
    },
    {
      "inputs": [],
      "name": "nftaddress",
      "outputs": [
        {
          "internalType": "address",
          "name": "",
          "type": "address"
        }
      ],
      "stateMutability": "view",
      "type": "function"
    },
    {
      "inputs": [
        {
          "internalType": "uint256",
          "name": "",
          "type": "uint256"
        }
      ],
      "name": "purchasePrice",
      "outputs": [
        {
          "internalType": "uint256",
          "name": "",
          "type": "uint256"
        }
      ],
      "stateMutability": "view",
      "type": "function"
    },
    {
      "inputs": [
        {
          "internalType": "uint256",
          "name": "_nftID",
          "type": "uint256"
        }
      ],
      "name": "retprice",
      "outputs": [
        {
          "internalType": "uint256",
          "name": "",
          "type": "uint256"
        }
      ],
      "stateMutability": "view",
      "type": "function"
    },
    {
      "inputs": [],
      "name": "seller",
      "outputs": [
        {
          "internalType": "address payable",
          "name": "",
          "type": "address"
        }
      ],
      "stateMutability": "view",
      "type": "function"
    },
    {
      "inputs": [],
      "name": "store",
      "outputs": [
        {
          "internalType": "uint256",
          "name": "",
          "type": "uint256"
        }
      ],
      "stateMutability": "view",
      "type": "function"
    },
    {
      "stateMutability": "payable",
      "type": "receive"
    }
  ],
  "bytecode": "0x608060405260006005553480156200001657600080fd5b50604051620015ed380380620015ed83398181016040528101906200003c919062000174565b816000806101000a81548173ffffffffffffffffffffffffffffffffffffffff021916908373ffffffffffffffffffffffffffffffffffffffff16021790555080600160006101000a81548173ffffffffffffffffffffffffffffffffffffffff021916908373ffffffffffffffffffffffffffffffffffffffff1602179055505050620001bb565b600080fd5b600073ffffffffffffffffffffffffffffffffffffffff82169050919050565b6000620000f782620000ca565b9050919050565b6200010981620000ea565b81146200011557600080fd5b50565b6000815190506200012981620000fe565b92915050565b60006200013c82620000ca565b9050919050565b6200014e816200012f565b81146200015a57600080fd5b50565b6000815190506200016e8162000143565b92915050565b600080604083850312156200018e576200018d620000c5565b5b60006200019e8582860162000118565b9250506020620001b1858286016200015d565b9150509250929050565b61142280620001cb6000396000f3fe6080604052600436106100f75760003560e01c8063975057e71161008a578063e3684e3911610059578063e3684e391461033e578063e82dcf211461037d578063fbbbd65b146103ba578063fcce4883146103d6576100fe565b8063975057e714610282578063bd94b005146102ad578063c5be388a146102d6578063cd5cfdaf146102ff576100fe565b80632986c0e5116100c65780632986c0e5146101c15780634dd4acaf146101ec57806361fdf4d91461022957806377fbc4ae14610245576100fe565b806304c312511461010357806308551a531461014057806312065fe01461016b5780632827e5bb14610196576100fe565b366100fe57005b600080fd5b34801561010f57600080fd5b5061012a60048036038101906101259190610b66565b610413565b6040516101379190610bae565b60405180910390f35b34801561014c57600080fd5b5061015561043d565b6040516101629190610c0a565b60405180910390f35b34801561017757600080fd5b50610180610463565b60405161018d9190610c34565b60405180910390f35b3480156101a257600080fd5b506101ab61046b565b6040516101b89190610c70565b60405180910390f35b3480156101cd57600080fd5b506101d661048f565b6040516101e39190610c34565b60405180910390f35b3480156101f857600080fd5b50610213600480360381019061020e9190610b66565b610495565b6040516102209190610c70565b60405180910390f35b610243600480360381019061023e9190610dd1565b6104c8565b005b34801561025157600080fd5b5061026c60048036038101906102679190610b66565b610590565b6040516102799190610c34565b60405180910390f35b34801561028e57600080fd5b506102976105a8565b6040516102a49190610c34565b60405180910390f35b3480156102b957600080fd5b506102d460048036038101906102cf9190610b66565b6105b2565b005b3480156102e257600080fd5b506102fd60048036038101906102f89190610eb0565b610662565b005b34801561030b57600080fd5b5061032660048036038101906103219190610b66565b6106b8565b60405161033593929190610f6f565b60405180910390f35b34801561034a57600080fd5b5061036560048036038101906103609190610b66565b610825565b60405161037493929190610fb4565b60405180910390f35b34801561038957600080fd5b506103a4600480360381019061039f9190610b66565b61095f565b6040516103b19190610c34565b60405180910390f35b6103d460048036038101906103cf9190610b66565b61097c565b005b3480156103e257600080fd5b506103fd60048036038101906103f89190610b66565b610afc565b60405161040a9190610bae565b60405180910390f35b60006004600083815260200190815260200160002060009054906101000a900460ff169050919050565b600160009054906101000a900473ffffffffffffffffffffffffffffffffffffffff1681565b600047905090565b60008054906101000a900473ffffffffffffffffffffffffffffffffffffffff1681565b60055481565b60026020528060005260406000206000915054906101000a900473ffffffffffffffffffffffffffffffffffffffff1681565b83600360008781526020019081526020016000208190555060016004600087815260200190815260200160002060006101000a81548160ff0219169083151502179055508260066000878152602001908152602001600020600001908161052f9190611205565b50816006600087815260200190815260200160002060010190816105539190611205565b508060066000878152602001908152602001600020600201819055506001600560008282546105829190611306565b925050819055505050505050565b60036020528060005260406000206000915090505481565b6000600554905090565b600180146105bf57600080fd5b60006002600083815260200190815260200160002060009054906101000a900473ffffffffffffffffffffffffffffffffffffffff1673ffffffffffffffffffffffffffffffffffffffff16476040516106189061136b565b60006040518083038185875af1925050503d8060008114610655576040519150601f19603f3d011682016040523d82523d6000602084013e61065a565b606091505b505090505050565b806002600084815260200190815260200160002060006101000a81548173ffffffffffffffffffffffffffffffffffffffff021916908373ffffffffffffffffffffffffffffffffffffffff1602179055505050565b60006060806006600085815260200190815260200160002060020154600660008681526020019081526020016000206000016006600087815260200190815260200160002060010181805461070c90611028565b80601f016020809104026020016040519081016040528092919081815260200182805461073890611028565b80156107855780601f1061075a57610100808354040283529160200191610785565b820191906000526020600020905b81548152906001019060200180831161076857829003601f168201915b5050505050915080805461079890611028565b80601f01602080910402602001604051908101604052809291908181526020018280546107c490611028565b80156108115780601f106107e657610100808354040283529160200191610811565b820191906000526020600020905b8154815290600101906020018083116107f457829003601f168201915b505050505090509250925092509193909250565b600660205280600052604060002060009150905080600001805461084890611028565b80601f016020809104026020016040519081016040528092919081815260200182805461087490611028565b80156108c15780601f10610896576101008083540402835291602001916108c1565b820191906000526020600020905b8154815290600101906020018083116108a457829003601f168201915b5050505050908060010180546108d690611028565b80601f016020809104026020016040519081016040528092919081815260200182805461090290611028565b801561094f5780601f106109245761010080835404028352916020019161094f565b820191906000526020600020905b81548152906001019060200180831161093257829003601f168201915b5050505050908060020154905083565b600060036000838152602001908152602001600020549050919050565b806002600082815260200190815260200160002060009054906101000a900473ffffffffffffffffffffffffffffffffffffffff1673ffffffffffffffffffffffffffffffffffffffff163373ffffffffffffffffffffffffffffffffffffffff1614610a1e576040517f08c379a0000000000000000000000000000000000000000000000000000000008152600401610a15906113cc565b60405180910390fd5b60036000838152602001908152602001600020543414610a3d57600080fd5b6000600160009054906101000a900473ffffffffffffffffffffffffffffffffffffffff1673ffffffffffffffffffffffffffffffffffffffff1647604051610a859061136b565b60006040518083038185875af1925050503d8060008114610ac2576040519150601f19603f3d011682016040523d82523d6000602084013e610ac7565b606091505b5050905060006004600085815260200190815260200160002060006101000a81548160ff021916908315150217905550505050565b60046020528060005260406000206000915054906101000a900460ff1681565b6000604051905090565b600080fd5b600080fd5b6000819050919050565b610b4381610b30565b8114610b4e57600080fd5b50565b600081359050610b6081610b3a565b92915050565b600060208284031215610b7c57610b7b610b26565b5b6000610b8a84828501610b51565b91505092915050565b60008115159050919050565b610ba881610b93565b82525050565b6000602082019050610bc36000830184610b9f565b92915050565b600073ffffffffffffffffffffffffffffffffffffffff82169050919050565b6000610bf482610bc9565b9050919050565b610c0481610be9565b82525050565b6000602082019050610c1f6000830184610bfb565b92915050565b610c2e81610b30565b82525050565b6000602082019050610c496000830184610c25565b92915050565b6000610c5a82610bc9565b9050919050565b610c6a81610c4f565b82525050565b6000602082019050610c856000830184610c61565b92915050565b600080fd5b600080fd5b6000601f19601f8301169050919050565b7f4e487b7100000000000000000000000000000000000000000000000000000000600052604160045260246000fd5b610cde82610c95565b810181811067ffffffffffffffff82111715610cfd57610cfc610ca6565b5b80604052505050565b6000610d10610b1c565b9050610d1c8282610cd5565b919050565b600067ffffffffffffffff821115610d3c57610d3b610ca6565b5b610d4582610c95565b9050602081019050919050565b82818337600083830152505050565b6000610d74610d6f84610d21565b610d06565b905082815260208101848484011115610d9057610d8f610c90565b5b610d9b848285610d52565b509392505050565b600082601f830112610db857610db7610c8b565b5b8135610dc8848260208601610d61565b91505092915050565b600080600080600060a08688031215610ded57610dec610b26565b5b6000610dfb88828901610b51565b9550506020610e0c88828901610b51565b945050604086013567ffffffffffffffff811115610e2d57610e2c610b2b565b5b610e3988828901610da3565b935050606086013567ffffffffffffffff811115610e5a57610e59610b2b565b5b610e6688828901610da3565b9250506080610e7788828901610b51565b9150509295509295909350565b610e8d81610c4f565b8114610e9857600080fd5b50565b600081359050610eaa81610e84565b92915050565b60008060408385031215610ec757610ec6610b26565b5b6000610ed585828601610b51565b9250506020610ee685828601610e9b565b9150509250929050565b600081519050919050565b600082825260208201905092915050565b60005b83811015610f2a578082015181840152602081019050610f0f565b60008484015250505050565b6000610f4182610ef0565b610f4b8185610efb565b9350610f5b818560208601610f0c565b610f6481610c95565b840191505092915050565b6000606082019050610f846000830186610c25565b8181036020830152610f968185610f36565b90508181036040830152610faa8184610f36565b9050949350505050565b60006060820190508181036000830152610fce8186610f36565b90508181036020830152610fe28185610f36565b9050610ff16040830184610c25565b949350505050565b7f4e487b7100000000000000000000000000000000000000000000000000000000600052602260045260246000fd5b6000600282049050600182168061104057607f821691505b60208210810361105357611052610ff9565b5b50919050565b60008190508160005260206000209050919050565b60006020601f8301049050919050565b600082821b905092915050565b6000600883026110bb7fffffffffffffffffffffffffffffffffffffffffffffffffffffffffffffffff8261107e565b6110c5868361107e565b95508019841693508086168417925050509392505050565b6000819050919050565b60006111026110fd6110f884610b30565b6110dd565b610b30565b9050919050565b6000819050919050565b61111c836110e7565b61113061112882611109565b84845461108b565b825550505050565b600090565b611145611138565b611150818484611113565b505050565b5b818110156111745761116960008261113d565b600181019050611156565b5050565b601f8211156111b95761118a81611059565b6111938461106e565b810160208510156111a2578190505b6111b66111ae8561106e565b830182611155565b50505b505050565b600082821c905092915050565b60006111dc600019846008026111be565b1980831691505092915050565b60006111f583836111cb565b9150826002028217905092915050565b61120e82610ef0565b67ffffffffffffffff81111561122757611226610ca6565b5b6112318254611028565b61123c828285611178565b600060209050601f83116001811461126f576000841561125d578287015190505b61126785826111e9565b8655506112cf565b601f19841661127d86611059565b60005b828110156112a557848901518255600182019150602085019450602081019050611280565b868310156112c257848901516112be601f8916826111cb565b8355505b6001600288020188555050505b505050505050565b7f4e487b7100000000000000000000000000000000000000000000000000000000600052601160045260246000fd5b600061131182610b30565b915061131c83610b30565b9250828201905080821115611334576113336112d7565b5b92915050565b600081905092915050565b50565b600061135560008361133a565b915061136082611345565b600082019050919050565b600061137682611348565b9150819050919050565b7f4f6e6c792062757965722063616e207573652074686973206d6574686f640000600082015250565b60006113b6601e83610efb565b91506113c182611380565b602082019050919050565b600060208201905081810360008301526113e5816113a9565b905091905056fea2646970667358221220f0a0bcd391cf2469b30c94cacb1d90474ff8e565191ba06f99926ab0f5d6b44664736f6c63430008120033",
  "linkReferences": {},
  "deployedLinkReferences": {}
}